:100000000C9466000C9483000C9483000C94830081
:100010000C9483000C9483000C9483000C94830054
:100020000C9483000C9483000C9483000C94830044
:100030000C9483000C9483000C9483000C94830034
:100040000C94CB010C9483000C9483000C948300DB
:100050000C9483000C9483000C9483000C94830014
:100060000C9483000C9483000000000024002700FF
:100070002A0000000000250028002B0000000000DE
:1000800023002600290004040404040404040202DA
:100090000202020203030303030302020301020438
:1000A00008102040800102040810200102040810FA
:1000B0002040804000000009000302000004050801
:1000C00000000000000000000000000011241FBE1E
:1000D000CFEFD8E0DEBFCDBF11E0A0E0B1E0E2E8B5
:1000E000FAE002C005900D92A430B107D9F721E0E3
:1000F000A4E0B1E001C01D92A131B207E1F70E9476
:1001000015020C943F050C940000843081F028F413
:100110008230E9F08330F9F00895883071F0893049
:1001200091F08530B9F4809180008F7D03C080917B
:1001300080008F778093800008958091B0008F7742
:100140008093B00008958091B0008F7DF9CF84B581
:100150008F7784BD089584B58F7DFBCFCF93DF93D8
:10016000282F30E0F901EC54FF4F8491F901E35658
:10017000FF4FD491F901EA57FF4FC491CC23A1F06E
:1001800081110E948500EC2FF0E0EE0FFF1FE45874
:10019000FF4FA591B491EC91ED2381E090E009F43B
:1001A00080E0DF91CF91089580E090E0FACF1F9337
:1001B000CF93DF93282F30E0F901EC54FF4F849167
:1001C000F901E356FF4FD491F901EA57FF4FC4916B
:1001D000CC23A9F0162F81110E948500EC2FF0E0AE
:1001E000EE0FFF1FEE58FF4FA591B4918FB7F89413
:1001F000EC91111108C0D095DE23DC938FBFDF9105
:10020000CF911F910895DE2BF8CFCF93DF9390E02D
:10021000FC01E356FF4F24918A579F4FFC018491C4
:100220008823D1F090E0880F991FFC01E859FF4F17
:10023000A591B491FC01EE58FF4FC591D491623065
:1002400071F49FB7F8943C91822F809583238C930F
:10025000E8812E2B28839FBFDF91CF9108958FB720
:10026000F894EC912E2B2C938FBFF6CF3FB7F894D8
:1002700080910D0190910E01A0910F01B09110019C
:1002800026B5A89B05C02F3F19F00196A11DB11DF1
:100290003FBFBA2FA92F982F8827BC01CD01620F2D
:1002A000711D811D911D43E0660F771F881F991FE7
:1002B0004A95D1F708958F929F92AF92BF92CF92B5
:1002C000DF92EF92FF924B015C010E9436016B01BD
:1002D0007C010E9436016C197D098E099F09683ED8
:1002E000734081059105A8F321E0821A9108A108C5
:1002F000B10888EEC80E83E0D81EE11CF11C811401
:100300009104A104B10429F7FF90EF90DF90CF9002
:10031000BF90AF909F908F900895CF93DF93C0913F
:100320000401D091050161E01C161D060CF060E08F
:1003300089E00E94D70061E0C230D1050CF460E092
:100340008DE00E94D70061E023970CF460E087E025
:10035000DF91CF910C94D700CF93DF93C09106012A
:10036000D091070161E01C161D060CF060E088E0EA
:100370000E94D70061E0C230D1050CF460E08BE050
:100380000E94D70061E023970CF460E08CE0DF91DD
:10039000CF910C94D7001F920F920FB60F92112499
:1003A0002F933F938F939F93AF93BF9380910901B6
:1003B00090910A01A0910B01B0910C0130910801BC
:1003C00026E0230F2D3768F129E8230F0396A11D9E
:1003D000B11D209308018093090190930A01A09315
:1003E0000B01B0930C0180910D0190910E01A09131
:1003F0000F01B09110010196A11DB11D80930D0157
:1004000090930E01A0930F01B0931001BF91AF9193
:100410009F918F913F912F910F900FBE0F901F9042
:1004200018950296A11DB11DD4CFCF93DF9300D0B4
:1004300000D01F92CDB7DEB7789484B5836084BDB9
:1004400085B5836085BD80916E00816080936E006C
:1004500082E080938100809181008160809381009F
:10046000809180008160809380008091B1008460E1
:100470008093B1008091B00081608093B00086E8E5
:1004800080937A001092C10061E088E00E9405012B
:1004900061E08BE00E94050161E08CE00E940501B3
:1004A00061E08AE00E94050161E089E00E940501A7
:1004B00061E08DE00E94050161E087E00E94050196
:1004C00062E082E00E94050162E083E00E94050193
:1004D00080E480937C0080917A00806480937A002D
:1004E00080917A0086FDFCCF609178007091790050
:1004F000072E000C880B990B61157105810591057C
:1005000011F00E94D30483E090E09D838C8361E02E
:100510008AE00E94D70064EF71E080E090E00E94E2
:100520005B0160E08AE00E94D70064EF71E080E048
:1005300090E00E945B018C819D8101979D838C835B
:10054000892B29F70E94AC010E948D0181EA482E77
:100550008FE0582E612C712C0E94AC010E948D01FD
:1005600060E08AE00E94D7000E948404A301920107
:100570000E94DC046B017C0128EEC20E23E0D21E37
:10058000E11CF11C8FB7F8948090090190900A014A
:10059000A0900B01B0900C018FBF81E089832224D1
:1005A00023941B821A8210E000E01D821C822FB768
:1005B000F8948091090190910A01A0910B01B091EA
:1005C0000C012FBF88199909AA09BB098C159D0533
:1005D000AE05BF05D8F582E00E94AE00382E81112D
:1005E00017C091E0291214C08C819D8101969D83D2
:1005F0008C83039714F091E09A8382E00E94AE000E
:10060000892BD9F364E170E080E090E00E945B0107
:1006100083E00E94AE00282E811115C0298121306F
:1006200091F40F5F1F4F0330110514F081E08B83AD
:1006300083E00E94AE00892BD9F364E170E080E092
:1006400090E00E945B012982232CB1CF61E08AE017
:100650000E94D7008FB7F894C0900901D0900A018A
:10066000E0900B01F0900C018FBF19822FB7F89426
:100670008091090190910A01A0910B01B0910C01A8
:100680002FBF8C199D09AE09BF0988389341A10578
:10069000B10508F58981811122C09A81992309F455
:1006A0008EC02B812111E2CF83E00E94AE00892B06
:1006B000E9F680910401909105010196909305015E
:1006C000809304010E948D0160E08AE00E94D700BF
:1006D00021E02983CBCF8981882309F488C08091C8
:1006E00006019091070103970CF486C085E090E025
:1006F0009D838C8361E088E00E94D70068EC70E005
:1007000080E090E00E945B0160E088E00E94D700FA
:1007100061E08BE00E94D70068EC70E080E090E040
:100720000E945B0160E08BE00E94D70061E08CE0FA
:100730000E94D70068EC70E080E090E00E945B01CE
:1007400060E08CE00E94D7008C819D8101979D83A1
:100750008C83892B79F61092070110920601109272
:1007600005011092040160E088E00E94D70060E07B
:100770008BE00E94D70060E08CE00E94D70060E030
:1007800089E00E94D70060E08DE00E94D70060E021
:1007900087E00E94D70060ED77E080E090E00E9463
:1007A0005B0168EE73E080E090E00E945B0180E016
:1007B00090E0892B09F4D0CE0E940000CDCE82E0DB
:1007C0000E94AE00892B09F06CCF809106019091B8
:1007D0000701019690930701809306010E94AC01E6
:1007E00060E08AE00E94D70091E099833FCF60E00B
:1007F0008AE00E94D70073CF809104019091050197
:1008000003977CF285E090E09D838C8361E089E032
:100810000E94D70068EC70E080E090E00E945B01ED
:1008200060E089E00E94D70061E08DE00E94D7007F
:1008300068EC70E080E090E00E945B0160E08DE099
:100840000E94D70061E087E00E94D70068EC70E06A
:1008500080E090E00E945B0160E087E00E94D700AA
:100860008C819D8101979D838C83892B79F673CF31
:100870008F929F92AF92BF92CF92DF92EF92FF92B0
:10088000CF93DF93EC01688179818A819B81611527
:1008900071058105910521F464E279ED8BE597E01E
:1008A0002DE133EF41E050E00E94DC0449015A01A0
:1008B0009B01AC01A7EAB1E40E94FB046B017C013F
:1008C000ACEEB4EFA50194010E940905C60ED71E37
:1008D000E81EF91EF7FE06C081E0C81AD108E1083B
:1008E00080E8F80AC882D982EA82FB82C701B60191
:1008F0009F77DF91CF91FF90EF90DF90CF90BF90E7
:10090000AF909F908F9008958F929F92AF92BF92D9
:10091000CF92DF92EF92FF926091000170910101FE
:100920008091020190910301611571058105910586
:1009300021F464E279ED8BE597E02DE133EF41E0BE
:1009400050E00E94DC0449015A019B01AC01A7EA76
:10095000B1E40E94FB046B017C01ACEEB4EFA50195
:1009600094010E940905C60ED71EE81EF91EF7FE67
:1009700006C081E0C81AD108E10880E8F80AC092F0
:100980000001D0920101E0920201F0920301C7013F
:10099000B6019F77FF90EF90DF90CF90BF90AF9020
:1009A0009F908F9008956093000170930101809350
:1009B0000201909303010895052E97FB1EF4009405
:1009C0000E94F30457FD07D00E940E0507FC03D0D8
:1009D0004EF40C94F30450954095309521953F4F7B
:1009E0004F4F5F4F089590958095709561957F4F1B
:1009F0008F4F9F4F08950E943005A59F900DB49F83
:100A0000900DA49F800D911D11240895B7FF0C94A3
:100A1000FB040E94FB04821B930B0895A1E21A2E93
:100A2000AA1BBB1BFD010DC0AA1FBB1FEE1FFF1F92
:100A3000A217B307E407F50720F0A21BB30BE40BE2
:100A4000F50B661F771F881F991F1A9469F7609529
:100A50007095809590959B01AC01BD01CF010895E3
:100A6000A29FB001B39FC001A39F700D811D1124EF
:100A7000911DB29F700D811D1124911D0895F89450
:020A8000FFCFA6
:040A8200010000006F
:00000001FF
